{
  "_format": "hh-sol-artifact-1",
  "contractName": "Collection",
  "sourceName": "contracts/Collection.sol",
  "abi": [
    {
      "inputs": [],
      "stateMutability": "nonpayable",
      "type": "constructor"
    },
    {
      "anonymous": false,
      "inputs": [
        {
          "indexed": true,
          "internalType": "address",
          "name": "owner",
          "type": "address"
        },
        {
          "indexed": true,
          "internalType": "address",
          "name": "approved",
          "type": "address"
        },
        {
          "indexed": true,
          "internalType": "uint256",
          "name": "tokenId",
          "type": "uint256"
        }
      ],
      "name": "Approval",
      "type": "event"
    },
    {
      "anonymous": false,
      "inputs": [
        {
          "indexed": true,
          "internalType": "address",
          "name": "owner",
          "type": "address"
        },
        {
          "indexed": true,
          "internalType": "address",
          "name": "operator",
          "type": "address"
        },
        {
          "indexed": false,
          "internalType": "bool",
          "name": "approved",
          "type": "bool"
        }
      ],
      "name": "ApprovalForAll",
      "type": "event"
    },
    {
      "anonymous": false,
      "inputs": [
        {
          "indexed": true,
          "internalType": "address",
          "name": "previousOwner",
          "type": "address"
        },
        {
          "indexed": true,
          "internalType": "address",
          "name": "newOwner",
          "type": "address"
        }
      ],
      "name": "OwnershipTransferred",
      "type": "event"
    },
    {
      "anonymous": false,
      "inputs": [
        {
          "indexed": true,
          "internalType": "address",
          "name": "from",
          "type": "address"
        },
        {
          "indexed": true,
          "internalType": "address",
          "name": "to",
          "type": "address"
        },
        {
          "indexed": true,
          "internalType": "uint256",
          "name": "tokenId",
          "type": "uint256"
        }
      ],
      "name": "Transfer",
      "type": "event"
    },
    {
      "inputs": [],
      "name": "LIMIT_PER_ADDRESS",
      "outputs": [
        {
          "internalType": "uint256",
          "name": "",
          "type": "uint256"
        }
      ],
      "stateMutability": "view",
      "type": "function"
    },
    {
      "inputs": [],
      "name": "MAX_SUPPLY",
      "outputs": [
        {
          "internalType": "uint256",
          "name": "",
          "type": "uint256"
        }
      ],
      "stateMutability": "view",
      "type": "function"
    },
    {
      "inputs": [],
      "name": "PRICE_PER_TOKEN",
      "outputs": [
        {
          "internalType": "uint256",
          "name": "",
          "type": "uint256"
        }
      ],
      "stateMutability": "view",
      "type": "function"
    },
    {
      "inputs": [
        {
          "internalType": "address",
          "name": "to",
          "type": "address"
        },
        {
          "internalType": "uint256",
          "name": "tokenId",
          "type": "uint256"
        }
      ],
      "name": "approve",
      "outputs": [],
      "stateMutability": "nonpayable",
      "type": "function"
    },
    {
      "inputs": [
        {
          "internalType": "address",
          "name": "owner",
          "type": "address"
        }
      ],
      "name": "balanceOf",
      "outputs": [
        {
          "internalType": "uint256",
          "name": "",
          "type": "uint256"
        }
      ],
      "stateMutability": "view",
      "type": "function"
    },
    {
      "inputs": [
        {
          "internalType": "uint256",
          "name": "tokenId",
          "type": "uint256"
        }
      ],
      "name": "getApproved",
      "outputs": [
        {
          "internalType": "address",
          "name": "",
          "type": "address"
        }
      ],
      "stateMutability": "view",
      "type": "function"
    },
    {
      "inputs": [
        {
          "internalType": "address",
          "name": "owner",
          "type": "address"
        },
        {
          "internalType": "address",
          "name": "operator",
          "type": "address"
        }
      ],
      "name": "isApprovedForAll",
      "outputs": [
        {
          "internalType": "bool",
          "name": "",
          "type": "bool"
        }
      ],
      "stateMutability": "view",
      "type": "function"
    },
    {
      "inputs": [
        {
          "internalType": "string",
          "name": "tokenURI",
          "type": "string"
        }
      ],
      "name": "mintNFT",
      "outputs": [
        {
          "internalType": "uint256",
          "name": "",
          "type": "uint256"
        }
      ],
      "stateMutability": "payable",
      "type": "function"
    },
    {
      "inputs": [],
      "name": "name",
      "outputs": [
        {
          "internalType": "string",
          "name": "",
          "type": "string"
        }
      ],
      "stateMutability": "view",
      "type": "function"
    },
    {
      "inputs": [],
      "name": "owner",
      "outputs": [
        {
          "internalType": "address",
          "name": "",
          "type": "address"
        }
      ],
      "stateMutability": "view",
      "type": "function"
    },
    {
      "inputs": [
        {
          "internalType": "uint256",
          "name": "tokenId",
          "type": "uint256"
        }
      ],
      "name": "ownerOf",
      "outputs": [
        {
          "internalType": "address",
          "name": "",
          "type": "address"
        }
      ],
      "stateMutability": "view",
      "type": "function"
    },
    {
      "inputs": [],
      "name": "renounceOwnership",
      "outputs": [],
      "stateMutability": "nonpayable",
      "type": "function"
    },
    {
      "inputs": [
        {
          "internalType": "address",
          "name": "from",
          "type": "address"
        },
        {
          "internalType": "address",
          "name": "to",
          "type": "address"
        },
        {
          "internalType": "uint256",
          "name": "tokenId",
          "type": "uint256"
        }
      ],
      "name": "safeTransferFrom",
      "outputs": [],
      "stateMutability": "nonpayable",
      "type": "function"
    },
    {
      "inputs": [
        {
          "internalType": "address",
          "name": "from",
          "type": "address"
        },
        {
          "internalType": "address",
          "name": "to",
          "type": "address"
        },
        {
          "internalType": "uint256",
          "name": "tokenId",
          "type": "uint256"
        },
        {
          "internalType": "bytes",
          "name": "data",
          "type": "bytes"
        }
      ],
      "name": "safeTransferFrom",
      "outputs": [],
      "stateMutability": "nonpayable",
      "type": "function"
    },
    {
      "inputs": [
        {
          "internalType": "address",
          "name": "operator",
          "type": "address"
        },
        {
          "internalType": "bool",
          "name": "approved",
          "type": "bool"
        }
      ],
      "name": "setApprovalForAll",
      "outputs": [],
      "stateMutability": "nonpayable",
      "type": "function"
    },
    {
      "inputs": [
        {
          "internalType": "uint256",
          "name": "limit",
          "type": "uint256"
        }
      ],
      "name": "setLimit",
      "outputs": [],
      "stateMutability": "nonpayable",
      "type": "function"
    },
    {
      "inputs": [
        {
          "internalType": "uint256",
          "name": "max_supply",
          "type": "uint256"
        }
      ],
      "name": "setMaxSupply",
      "outputs": [],
      "stateMutability": "nonpayable",
      "type": "function"
    },
    {
      "inputs": [
        {
          "internalType": "uint256",
          "name": "price",
          "type": "uint256"
        }
      ],
      "name": "setPrice",
      "outputs": [],
      "stateMutability": "nonpayable",
      "type": "function"
    },
    {
      "inputs": [
        {
          "internalType": "bytes4",
          "name": "interfaceId",
          "type": "bytes4"
        }
      ],
      "name": "supportsInterface",
      "outputs": [
        {
          "internalType": "bool",
          "name": "",
          "type": "bool"
        }
      ],
      "stateMutability": "view",
      "type": "function"
    },
    {
      "inputs": [],
      "name": "symbol",
      "outputs": [
        {
          "internalType": "string",
          "name": "",
          "type": "string"
        }
      ],
      "stateMutability": "view",
      "type": "function"
    },
    {
      "inputs": [
        {
          "internalType": "uint256",
          "name": "tokenId",
          "type": "uint256"
        }
      ],
      "name": "tokenURI",
      "outputs": [
        {
          "internalType": "string",
          "name": "",
          "type": "string"
        }
      ],
      "stateMutability": "view",
      "type": "function"
    },
    {
      "inputs": [
        {
          "internalType": "address",
          "name": "from",
          "type": "address"
        },
        {
          "internalType": "address",
          "name": "to",
          "type": "address"
        },
        {
          "internalType": "uint256",
          "name": "tokenId",
          "type": "uint256"
        }
      ],
      "name": "transferFrom",
      "outputs": [],
      "stateMutability": "nonpayable",
      "type": "function"
    },
    {
      "inputs": [
        {
          "internalType": "address",
          "name": "newOwner",
          "type": "address"
        }
      ],
      "name": "transferOwnership",
      "outputs": [],
      "stateMutability": "nonpayable",
      "type": "function"
    },
    {
      "inputs": [],
      "name": "withdrawMoney",
      "outputs": [],
      "stateMutability": "nonpayable",
      "type": "function"
    }
  ],
  "bytecode": "0x6080604052662386f26fc10000600c556002600d556005600e553480156200002657600080fd5b506040518060400160405280600a81526020017f436f6c6c656374696f6e000000000000000000000000000000000000000000008152506040518060400160405280600381526020017f4e465400000000000000000000000000000000000000000000000000000000008152508160009081620000a4919062000427565b508060019081620000b6919062000427565b505050620000d9620000cd620000df60201b60201c565b620000e760201b60201c565b6200050e565b600033905090565b6000600760009054906101000a900473ffffffffffffffffffffffffffffffffffffffff16905081600760006101000a81548173ffffffffffffffffffffffffffffffffffffffff021916908373ffffffffffffffffffffffffffffffffffffffff1602179055508173ffffffffffffffffffffffffffffffffffffffff168173ffffffffffffffffffffffffffffffffffffffff167f8be0079c531659141344cd1fd0a4f28419497f9722a3daafe3b4186f6b6457e060405160405180910390a35050565b600081519050919050565b7f4e487b7100000000000000000000000000000000000000000000000000000000600052604160045260246000fd5b7f4e487b7100000000000000000000000000000000000000000000000000000000600052602260045260246000fd5b600060028204905060018216806200022f57607f821691505b602082108103620002455762000244620001e7565b5b50919050565b60008190508160005260206000209050919050565b60006020601f8301049050919050565b600082821b905092915050565b600060088302620002af7fffffffffffffffffffffffffffffffffffffffffffffffffffffffffffffffff8262000270565b620002bb868362000270565b95508019841693508086168417925050509392505050565b6000819050919050565b6000819050919050565b60006200030862000302620002fc84620002d3565b620002dd565b620002d3565b9050919050565b6000819050919050565b6200032483620002e7565b6200033c62000333826200030f565b8484546200027d565b825550505050565b600090565b6200035362000344565b6200036081848462000319565b505050565b5b8181101562000388576200037c60008262000349565b60018101905062000366565b5050565b601f821115620003d757620003a1816200024b565b620003ac8462000260565b81016020851015620003bc578190505b620003d4620003cb8562000260565b83018262000365565b50505b505050565b600082821c905092915050565b6000620003fc60001984600802620003dc565b1980831691505092915050565b6000620004178383620003e9565b9150826002028217905092915050565b6200043282620001ad565b67ffffffffffffffff8111156200044e576200044d620001b8565b5b6200045a825462000216565b620004678282856200038c565b600060209050601f8311600181146200049f57600084156200048a578287015190505b62000496858262000409565b86555062000506565b601f198416620004af866200024b565b60005b82811015620004d957848901518255600182019150602085019450602081019050620004b2565b86831015620004f95784890151620004f5601f891682620003e9565b8355505b6001600288020188555050505b505050505050565b6134ca806200051e6000396000f3fe60806040526004361061014b5760003560e01c8063715018a6116100b6578063ac4460021161006f578063ac4460021461047c578063b88d4fde14610493578063c87b56dd146104bc578063e985e9c5146104f9578063f2fde38b14610536578063fb37e8831461055f5761014b565b8063715018a614610392578063833b9499146103a95780638da5cb5b146103d457806391b7f5ed146103ff57806395d89b4114610428578063a22cb465146104535761014b565b806332cb6b0c1161010857806332cb6b0c14610270578063417bac1a1461029b57806342842e0e146102c65780636352211e146102ef5780636f8b44b01461032c57806370a08231146103555761014b565b806301ffc9a71461015057806306fdde031461018d578063081812fc146101b8578063095ea7b3146101f557806323b872dd1461021e57806327ea6f2b14610247575b600080fd5b34801561015c57600080fd5b5061017760048036038101906101729190611f55565b61058f565b6040516101849190611f9d565b60405180910390f35b34801561019957600080fd5b506101a2610671565b6040516101af9190612048565b60405180910390f35b3480156101c457600080fd5b506101df60048036038101906101da91906120a0565b610703565b6040516101ec919061210e565b60405180910390f35b34801561020157600080fd5b5061021c60048036038101906102179190612155565b610749565b005b34801561022a57600080fd5b5061024560048036038101906102409190612195565b610860565b005b34801561025357600080fd5b5061026e600480360381019061026991906120a0565b6108c0565b005b34801561027c57600080fd5b506102856108d2565b60405161029291906121f7565b60405180910390f35b3480156102a757600080fd5b506102b06108d8565b6040516102bd91906121f7565b60405180910390f35b3480156102d257600080fd5b506102ed60048036038101906102e89190612195565b6108de565b005b3480156102fb57600080fd5b50610316600480360381019061031191906120a0565b6108fe565b604051610323919061210e565b60405180910390f35b34801561033857600080fd5b50610353600480360381019061034e91906120a0565b6109af565b005b34801561036157600080fd5b5061037c60048036038101906103779190612212565b6109c1565b60405161038991906121f7565b60405180910390f35b34801561039e57600080fd5b506103a7610a78565b005b3480156103b557600080fd5b506103be610a8c565b6040516103cb91906121f7565b60405180910390f35b3480156103e057600080fd5b506103e9610a92565b6040516103f6919061210e565b60405180910390f35b34801561040b57600080fd5b50610426600480360381019061042191906120a0565b610abc565b005b34801561043457600080fd5b5061043d610ace565b60405161044a9190612048565b60405180910390f35b34801561045f57600080fd5b5061047a6004803603810190610475919061226b565b610b60565b005b34801561048857600080fd5b50610491610b76565b005b34801561049f57600080fd5b506104ba60048036038101906104b591906123e0565b610bcd565b005b3480156104c857600080fd5b506104e360048036038101906104de91906120a0565b610c2f565b6040516104f09190612048565b60405180910390f35b34801561050557600080fd5b50610520600480360381019061051b9190612463565b610d41565b60405161052d9190611f9d565b60405180910390f35b34801561054257600080fd5b5061055d60048036038101906105589190612212565b610dd5565b005b61057960048036038101906105749190612544565b610e58565b60405161058691906121f7565b60405180910390f35b60007f80ac58cd000000000000000000000000000000000000000000000000000000007bffffffffffffffffffffffffffffffffffffffffffffffffffffffff1916827bffffffffffffffffffffffffffffffffffffffffffffffffffffffff1916148061065a57507f5b5e139f000000000000000000000000000000000000000000000000000000007bffffffffffffffffffffffffffffffffffffffffffffffffffffffff1916827bffffffffffffffffffffffffffffffffffffffffffffffffffffffff1916145b8061066a575061066982611103565b5b9050919050565b606060008054610680906125bc565b80601f01602080910402602001604051908101604052809291908181526020018280546106ac906125bc565b80156106f95780601f106106ce576101008083540402835291602001916106f9565b820191906000526020600020905b8154815290600101906020018083116106dc57829003601f168201915b5050505050905090565b600061070e8261116d565b6004600083815260200190815260200160002060009054906101000a900473ffffffffffffffffffffffffffffffffffffffff169050919050565b6000610754826108fe565b90508073ffffffffffffffffffffffffffffffffffffffff168373ffffffffffffffffffffffffffffffffffffffff16036107c4576040517f08c379a00000000000000000000000000000000000000000000000000000000081526004016107bb9061265f565b60405180910390fd5b8073ffffffffffffffffffffffffffffffffffffffff166107e36111b8565b73ffffffffffffffffffffffffffffffffffffffff16148061081257506108118161080c6111b8565b610d41565b5b610851576040517f08c379a0000000000000000000000000000000000000000000000000000000008152600401610848906126f1565b60405180910390fd5b61085b83836111c0565b505050565b61087161086b6111b8565b82611279565b6108b0576040517f08c379a00000000000000000000000000000000000000000000000000000000081526004016108a790612783565b60405180910390fd5b6108bb83838361130e565b505050565b6108c8611574565b80600d8190555050565b600e5481565b600d5481565b6108f983838360405180602001604052806000815250610bcd565b505050565b6000806002600084815260200190815260200160002060009054906101000a900473ffffffffffffffffffffffffffffffffffffffff169050600073ffffffffffffffffffffffffffffffffffffffff168173ffffffffffffffffffffffffffffffffffffffff16036109a6576040517f08c379a000000000000000000000000000000000000000000000000000000000815260040161099d906127ef565b60405180910390fd5b80915050919050565b6109b7611574565b80600e8190555050565b60008073ffffffffffffffffffffffffffffffffffffffff168273ffffffffffffffffffffffffffffffffffffffff1603610a31576040517f08c379a0000000000000000000000000000000000000000000000000000000008152600401610a2890612881565b60405180910390fd5b600360008373ffffffffffffffffffffffffffffffffffffffff1673ffffffffffffffffffffffffffffffffffffffff168152602001908152602001600020549050919050565b610a80611574565b610a8a60006115f2565b565b600c5481565b6000600760009054906101000a900473ffffffffffffffffffffffffffffffffffffffff16905090565b610ac4611574565b80600c8190555050565b606060018054610add906125bc565b80601f0160208091040260200160405190810160405280929190818152602001828054610b09906125bc565b8015610b565780601f10610b2b57610100808354040283529160200191610b56565b820191906000526020600020905b815481529060010190602001808311610b3957829003601f168201915b5050505050905090565b610b72610b6b6111b8565b83836116b8565b5050565b610b7e611574565b60003390508073ffffffffffffffffffffffffffffffffffffffff166108fc479081150290604051600060405180830381858888f19350505050158015610bc9573d6000803e3d6000fd5b5050565b610bde610bd86111b8565b83611279565b610c1d576040517f08c379a0000000000000000000000000000000000000000000000000000000008152600401610c1490612783565b60405180910390fd5b610c2984848484611824565b50505050565b6060610c3a8261116d565b6000600660008481526020019081526020016000208054610c5a906125bc565b80601f0160208091040260200160405190810160405280929190818152602001828054610c86906125bc565b8015610cd35780601f10610ca857610100808354040283529160200191610cd3565b820191906000526020600020905b815481529060010190602001808311610cb657829003601f168201915b505050505090506000610ce4611880565b90506000815103610cf9578192505050610d3c565b600082511115610d2e578082604051602001610d169291906128dd565b60405160208183030381529060405292505050610d3c565b610d3784611897565b925050505b919050565b6000600560008473ffffffffffffffffffffffffffffffffffffffff1673ffffffffffffffffffffffffffffffffffffffff16815260200190815260200160002060008373ffffffffffffffffffffffffffffffffffffffff1673ffffffffffffffffffffffffffffffffffffffff16815260200190815260200160002060009054906101000a900460ff16905092915050565b610ddd611574565b600073ffffffffffffffffffffffffffffffffffffffff168173ffffffffffffffffffffffffffffffffffffffff1603610e4c576040517f08c379a0000000000000000000000000000000000000000000000000000000008152600401610e4390612973565b60405180910390fd5b610e55816115f2565b50565b600034600c541115610e9f576040517f08c379a0000000000000000000000000000000000000000000000000000000008152600401610e96906129df565b60405180910390fd5b600d54600a60003373ffffffffffffffffffffffffffffffffffffffff1673ffffffffffffffffffffffffffffffffffffffff16815260200190815260200160002060009054906101000a900460ff1660ff1610610f32576040517f08c379a0000000000000000000000000000000000000000000000000000000008152600401610f2990612a4b565b60405180910390fd5b600e546001610f4160096118ff565b610f4b9190612a9a565b1115610f8c576040517f08c379a0000000000000000000000000000000000000000000000000000000008152600401610f8390612b1a565b60405180910390fd5b6000600b83604051610f9e9190612b3a565b908152602001604051809103902060009054906101000a900460ff1660ff1614610ffd576040517f08c379a0000000000000000000000000000000000000000000000000000000008152600401610ff490612b9d565b60405180910390fd5b6001600b8360405161100f9190612b3a565b908152602001604051809103902060008282829054906101000a900460ff166110389190612bca565b92506101000a81548160ff021916908360ff1602179055506001600a60003373ffffffffffffffffffffffffffffffffffffffff1673ffffffffffffffffffffffffffffffffffffffff16815260200190815260200160002060008282829054906101000a900460ff166110ac9190612bca565b92506101000a81548160ff021916908360ff1602179055506110ce600861190d565b6110d8600961190d565b60006110e460086118ff565b90506110f03382611923565b6110fa8184611afc565b80915050919050565b60007f01ffc9a7000000000000000000000000000000000000000000000000000000007bffffffffffffffffffffffffffffffffffffffffffffffffffffffff1916827bffffffffffffffffffffffffffffffffffffffffffffffffffffffff1916149050919050565b61117681611b69565b6111b5576040517f08c379a00000000000000000000000000000000000000000000000000000000081526004016111ac906127ef565b60405180910390fd5b50565b600033905090565b816004600083815260200190815260200160002060006101000a81548173ffffffffffffffffffffffffffffffffffffffff021916908373ffffffffffffffffffffffffffffffffffffffff160217905550808273ffffffffffffffffffffffffffffffffffffffff16611233836108fe565b73ffffffffffffffffffffffffffffffffffffffff167f8c5be1e5ebec7d5bd14f71427d1e84f3dd0314c0f7b2291e5b200ac8c7c3b92560405160405180910390a45050565b600080611285836108fe565b90508073ffffffffffffffffffffffffffffffffffffffff168473ffffffffffffffffffffffffffffffffffffffff1614806112c757506112c68185610d41565b5b8061130557508373ffffffffffffffffffffffffffffffffffffffff166112ed84610703565b73ffffffffffffffffffffffffffffffffffffffff16145b91505092915050565b8273ffffffffffffffffffffffffffffffffffffffff1661132e826108fe565b73ffffffffffffffffffffffffffffffffffffffff1614611384576040517f08c379a000000000000000000000000000000000000000000000000000000000815260040161137b90612c71565b60405180910390fd5b600073ffffffffffffffffffffffffffffffffffffffff168273ffffffffffffffffffffffffffffffffffffffff16036113f3576040517f08c379a00000000000000000000000000000000000000000000000000000000081526004016113ea90612d03565b60405180910390fd5b6113fe838383611bd5565b6114096000826111c0565b6001600360008573ffffffffffffffffffffffffffffffffffffffff1673ffffffffffffffffffffffffffffffffffffffff16815260200190815260200160002060008282546114599190612d23565b925050819055506001600360008473ffffffffffffffffffffffffffffffffffffffff1673ffffffffffffffffffffffffffffffffffffffff16815260200190815260200160002060008282546114b09190612a9a565b92505081905550816002600083815260200190815260200160002060006101000a81548173ffffffffffffffffffffffffffffffffffffffff021916908373ffffffffffffffffffffffffffffffffffffffff160217905550808273ffffffffffffffffffffffffffffffffffffffff168473ffffffffffffffffffffffffffffffffffffffff167fddf252ad1be2c89b69c2b068fc378daa952ba7f163c4a11628f55a4df523b3ef60405160405180910390a461156f838383611bda565b505050565b61157c6111b8565b73ffffffffffffffffffffffffffffffffffffffff1661159a610a92565b73ffffffffffffffffffffffffffffffffffffffff16146115f0576040517f08c379a00000000000000000000000000000000000000000000000000000000081526004016115e790612da3565b60405180910390fd5b565b6000600760009054906101000a900473ffffffffffffffffffffffffffffffffffffffff16905081600760006101000a81548173ffffffffffffffffffffffffffffffffffffffff021916908373ffffffffffffffffffffffffffffffffffffffff1602179055508173ffffffffffffffffffffffffffffffffffffffff168173ffffffffffffffffffffffffffffffffffffffff167f8be0079c531659141344cd1fd0a4f28419497f9722a3daafe3b4186f6b6457e060405160405180910390a35050565b8173ffffffffffffffffffffffffffffffffffffffff168373ffffffffffffffffffffffffffffffffffffffff1603611726576040517f08c379a000000000000000000000000000000000000000000000000000000000815260040161171d90612e0f565b60405180910390fd5b80600560008573ffffffffffffffffffffffffffffffffffffffff1673ffffffffffffffffffffffffffffffffffffffff16815260200190815260200160002060008473ffffffffffffffffffffffffffffffffffffffff1673ffffffffffffffffffffffffffffffffffffffff16815260200190815260200160002060006101000a81548160ff0219169083151502179055508173ffffffffffffffffffffffffffffffffffffffff168373ffffffffffffffffffffffffffffffffffffffff167f17307eab39ab6107e8899845ad3d59bd9653f200f220920489ca2b5937696c31836040516118179190611f9d565b60405180910390a3505050565b61182f84848461130e565b61183b84848484611bdf565b61187a576040517f08c379a000000000000000000000000000000000000000000000000000000000815260040161187190612ea1565b60405180910390fd5b50505050565b606060405180602001604052806000815250905090565b60606118a28261116d565b60006118ac611880565b905060008151116118cc57604051806020016040528060008152506118f7565b806118d684611d66565b6040516020016118e79291906128dd565b6040516020818303038152906040525b915050919050565b600081600001549050919050565b6001816000016000828254019250508190555050565b600073ffffffffffffffffffffffffffffffffffffffff168273ffffffffffffffffffffffffffffffffffffffff1603611992576040517f08c379a000000000000000000000000000000000000000000000000000000000815260040161198990612f0d565b60405180910390fd5b61199b81611b69565b156119db576040517f08c379a00000000000000000000000000000000000000000000000000000000081526004016119d290612f79565b60405180910390fd5b6119e760008383611bd5565b6001600360008473ffffffffffffffffffffffffffffffffffffffff1673ffffffffffffffffffffffffffffffffffffffff1681526020019081526020016000206000828254611a379190612a9a565b92505081905550816002600083815260200190815260200160002060006101000a81548173ffffffffffffffffffffffffffffffffffffffff021916908373ffffffffffffffffffffffffffffffffffffffff160217905550808273ffffffffffffffffffffffffffffffffffffffff16600073ffffffffffffffffffffffffffffffffffffffff167fddf252ad1be2c89b69c2b068fc378daa952ba7f163c4a11628f55a4df523b3ef60405160405180910390a4611af860008383611bda565b5050565b611b0582611b69565b611b44576040517f08c379a0000000000000000000000000000000000000000000000000000000008152600401611b3b9061300b565b60405180910390fd5b80600660008481526020019081526020016000209081611b6491906131d7565b505050565b60008073ffffffffffffffffffffffffffffffffffffffff166002600084815260200190815260200160002060009054906101000a900473ffffffffffffffffffffffffffffffffffffffff1673ffffffffffffffffffffffffffffffffffffffff1614159050919050565b505050565b505050565b6000611c008473ffffffffffffffffffffffffffffffffffffffff16611ec6565b15611d59578373ffffffffffffffffffffffffffffffffffffffff1663150b7a02611c296111b8565b8786866040518563ffffffff1660e01b8152600401611c4b94939291906132fe565b6020604051808303816000875af1925050508015611c8757506040513d601f19601f82011682018060405250810190611c84919061335f565b60015b611d09573d8060008114611cb7576040519150601f19603f3d011682016040523d82523d6000602084013e611cbc565b606091505b506000815103611d01576040517f08c379a0000000000000000000000000000000000000000000000000000000008152600401611cf890612ea1565b60405180910390fd5b805181602001fd5b63150b7a0260e01b7bffffffffffffffffffffffffffffffffffffffffffffffffffffffff1916817bffffffffffffffffffffffffffffffffffffffffffffffffffffffff191614915050611d5e565b600190505b949350505050565b606060008203611dad576040518060400160405280600181526020017f30000000000000000000000000000000000000000000000000000000000000008152509050611ec1565b600082905060005b60008214611ddf578080611dc89061338c565b915050600a82611dd89190613403565b9150611db5565b60008167ffffffffffffffff811115611dfb57611dfa6122b5565b5b6040519080825280601f01601f191660200182016040528015611e2d5781602001600182028036833780820191505090505b5090505b60008514611eba57600182611e469190612d23565b9150600a85611e559190613434565b6030611e619190612a9a565b60f81b818381518110611e7757611e76613465565b5b60200101907effffffffffffffffffffffffffffffffffffffffffffffffffffffffffffff1916908160001a905350600a85611eb39190613403565b9450611e31565b8093505050505b919050565b6000808273ffffffffffffffffffffffffffffffffffffffff163b119050919050565b6000604051905090565b600080fd5b600080fd5b60007fffffffff0000000000000000000000000000000000000000000000000000000082169050919050565b611f3281611efd565b8114611f3d57600080fd5b50565b600081359050611f4f81611f29565b92915050565b600060208284031215611f6b57611f6a611ef3565b5b6000611f7984828501611f40565b91505092915050565b60008115159050919050565b611f9781611f82565b82525050565b6000602082019050611fb26000830184611f8e565b92915050565b600081519050919050565b600082825260208201905092915050565b60005b83811015611ff2578082015181840152602081019050611fd7565b60008484015250505050565b6000601f19601f8301169050919050565b600061201a82611fb8565b6120248185611fc3565b9350612034818560208601611fd4565b61203d81611ffe565b840191505092915050565b60006020820190508181036000830152612062818461200f565b905092915050565b6000819050919050565b61207d8161206a565b811461208857600080fd5b50565b60008135905061209a81612074565b92915050565b6000602082840312156120b6576120b5611ef3565b5b60006120c48482850161208b565b91505092915050565b600073ffffffffffffffffffffffffffffffffffffffff82169050919050565b60006120f8826120cd565b9050919050565b612108816120ed565b82525050565b600060208201905061212360008301846120ff565b92915050565b612132816120ed565b811461213d57600080fd5b50565b60008135905061214f81612129565b92915050565b6000806040838503121561216c5761216b611ef3565b5b600061217a85828601612140565b925050602061218b8582860161208b565b9150509250929050565b6000806000606084860312156121ae576121ad611ef3565b5b60006121bc86828701612140565b93505060206121cd86828701612140565b92505060406121de8682870161208b565b9150509250925092565b6121f18161206a565b82525050565b600060208201905061220c60008301846121e8565b92915050565b60006020828403121561222857612227611ef3565b5b600061223684828501612140565b91505092915050565b61224881611f82565b811461225357600080fd5b50565b6000813590506122658161223f565b92915050565b6000806040838503121561228257612281611ef3565b5b600061229085828601612140565b92505060206122a185828601612256565b9150509250929050565b600080fd5b600080fd5b7f4e487b7100000000000000000000000000000000000000000000000000000000600052604160045260246000fd5b6122ed82611ffe565b810181811067ffffffffffffffff8211171561230c5761230b6122b5565b5b80604052505050565b600061231f611ee9565b905061232b82826122e4565b919050565b600067ffffffffffffffff82111561234b5761234a6122b5565b5b61235482611ffe565b9050602081019050919050565b82818337600083830152505050565b600061238361237e84612330565b612315565b90508281526020810184848401111561239f5761239e6122b0565b5b6123aa848285612361565b509392505050565b600082601f8301126123c7576123c66122ab565b5b81356123d7848260208601612370565b91505092915050565b600080600080608085870312156123fa576123f9611ef3565b5b600061240887828801612140565b945050602061241987828801612140565b935050604061242a8782880161208b565b925050606085013567ffffffffffffffff81111561244b5761244a611ef8565b5b612457878288016123b2565b91505092959194509250565b6000806040838503121561247a57612479611ef3565b5b600061248885828601612140565b925050602061249985828601612140565b9150509250929050565b600067ffffffffffffffff8211156124be576124bd6122b5565b5b6124c782611ffe565b9050602081019050919050565b60006124e76124e2846124a3565b612315565b905082815260208101848484011115612503576125026122b0565b5b61250e848285612361565b509392505050565b600082601f83011261252b5761252a6122ab565b5b813561253b8482602086016124d4565b91505092915050565b60006020828403121561255a57612559611ef3565b5b600082013567ffffffffffffffff81111561257857612577611ef8565b5b61258484828501612516565b91505092915050565b7f4e487b7100000000000000000000000000000000000000000000000000000000600052602260045260246000fd5b600060028204905060018216806125d457607f821691505b6020821081036125e7576125e661258d565b5b50919050565b7f4552433732313a20617070726f76616c20746f2063757272656e74206f776e6560008201527f7200000000000000000000000000000000000000000000000000000000000000602082015250565b6000612649602183611fc3565b9150612654826125ed565b604082019050919050565b600060208201905081810360008301526126788161263c565b9050919050565b7f4552433732313a20617070726f76652063616c6c6572206973206e6f7420746f60008201527f6b656e206f776e6572206e6f7220617070726f76656420666f7220616c6c0000602082015250565b60006126db603e83611fc3565b91506126e68261267f565b604082019050919050565b6000602082019050818103600083015261270a816126ce565b9050919050565b7f4552433732313a2063616c6c6572206973206e6f7420746f6b656e206f776e6560008201527f72206e6f7220617070726f766564000000000000000000000000000000000000602082015250565b600061276d602e83611fc3565b915061277882612711565b604082019050919050565b6000602082019050818103600083015261279c81612760565b9050919050565b7f4552433732313a20696e76616c696420746f6b656e2049440000000000000000600082015250565b60006127d9601883611fc3565b91506127e4826127a3565b602082019050919050565b60006020820190508181036000830152612808816127cc565b9050919050565b7f4552433732313a2061646472657373207a65726f206973206e6f74206120766160008201527f6c6964206f776e65720000000000000000000000000000000000000000000000602082015250565b600061286b602983611fc3565b91506128768261280f565b604082019050919050565b6000602082019050818103600083015261289a8161285e565b9050919050565b600081905092915050565b60006128b782611fb8565b6128c181856128a1565b93506128d1818560208601611fd4565b80840191505092915050565b60006128e982856128ac565b91506128f582846128ac565b91508190509392505050565b7f4f776e61626c653a206e6577206f776e657220697320746865207a65726f206160008201527f6464726573730000000000000000000000000000000000000000000000000000602082015250565b600061295d602683611fc3565b915061296882612901565b604082019050919050565b6000602082019050818103600083015261298c81612950565b9050919050565b7f4574686572207061696420697320696e636f7272656374000000000000000000600082015250565b60006129c9601783611fc3565b91506129d482612993565b602082019050919050565b600060208201905081810360008301526129f8816129bc565b9050919050565b7f596f752068617665206578636565646564206d696e74696e67206c696d697400600082015250565b6000612a35601f83611fc3565b9150612a40826129ff565b602082019050919050565b60006020820190508181036000830152612a6481612a28565b9050919050565b7f4e487b7100000000000000000000000000000000000000000000000000000000600052601160045260246000fd5b6000612aa58261206a565b9150612ab08361206a565b9250828201905080821115612ac857612ac7612a6b565b5b92915050565b7f596f752068617665206578636565646564204d617820537570706c7900000000600082015250565b6000612b04601c83611fc3565b9150612b0f82612ace565b602082019050919050565b60006020820190508181036000830152612b3381612af7565b9050919050565b6000612b4682846128ac565b915081905092915050565b7f54686973204e46542068617320616c7265616479206265656e206d696e746564600082015250565b6000612b87602083611fc3565b9150612b9282612b51565b602082019050919050565b60006020820190508181036000830152612bb681612b7a565b9050919050565b600060ff82169050919050565b6000612bd582612bbd565b9150612be083612bbd565b9250828201905060ff811115612bf957612bf8612a6b565b5b92915050565b7f4552433732313a207472616e736665722066726f6d20696e636f72726563742060008201527f6f776e6572000000000000000000000000000000000000000000000000000000602082015250565b6000612c5b602583611fc3565b9150612c6682612bff565b604082019050919050565b60006020820190508181036000830152612c8a81612c4e565b9050919050565b7f4552433732313a207472616e7366657220746f20746865207a65726f2061646460008201527f7265737300000000000000000000000000000000000000000000000000000000602082015250565b6000612ced602483611fc3565b9150612cf882612c91565b604082019050919050565b60006020820190508181036000830152612d1c81612ce0565b9050919050565b6000612d2e8261206a565b9150612d398361206a565b9250828203905081811115612d5157612d50612a6b565b5b92915050565b7f4f776e61626c653a2063616c6c6572206973206e6f7420746865206f776e6572600082015250565b6000612d8d602083611fc3565b9150612d9882612d57565b602082019050919050565b60006020820190508181036000830152612dbc81612d80565b9050919050565b7f4552433732313a20617070726f766520746f2063616c6c657200000000000000600082015250565b6000612df9601983611fc3565b9150612e0482612dc3565b602082019050919050565b60006020820190508181036000830152612e2881612dec565b9050919050565b7f4552433732313a207472616e7366657220746f206e6f6e20455243373231526560008201527f63656976657220696d706c656d656e7465720000000000000000000000000000602082015250565b6000612e8b603283611fc3565b9150612e9682612e2f565b604082019050919050565b60006020820190508181036000830152612eba81612e7e565b9050919050565b7f4552433732313a206d696e7420746f20746865207a65726f2061646472657373600082015250565b6000612ef7602083611fc3565b9150612f0282612ec1565b602082019050919050565b60006020820190508181036000830152612f2681612eea565b9050919050565b7f4552433732313a20746f6b656e20616c7265616479206d696e74656400000000600082015250565b6000612f63601c83611fc3565b9150612f6e82612f2d565b602082019050919050565b60006020820190508181036000830152612f9281612f56565b9050919050565b7f45524337323155524953746f726167653a2055524920736574206f66206e6f6e60008201527f6578697374656e7420746f6b656e000000000000000000000000000000000000602082015250565b6000612ff5602e83611fc3565b915061300082612f99565b604082019050919050565b6000602082019050818103600083015261302481612fe8565b9050919050565b60008190508160005260206000209050919050565b60006020601f8301049050919050565b600082821b905092915050565b60006008830261308d7fffffffffffffffffffffffffffffffffffffffffffffffffffffffffffffffff82613050565b6130978683613050565b95508019841693508086168417925050509392505050565b6000819050919050565b60006130d46130cf6130ca8461206a565b6130af565b61206a565b9050919050565b6000819050919050565b6130ee836130b9565b6131026130fa826130db565b84845461305d565b825550505050565b600090565b61311761310a565b6131228184846130e5565b505050565b5b818110156131465761313b60008261310f565b600181019050613128565b5050565b601f82111561318b5761315c8161302b565b61316584613040565b81016020851015613174578190505b61318861318085613040565b830182613127565b50505b505050565b600082821c905092915050565b60006131ae60001984600802613190565b1980831691505092915050565b60006131c7838361319d565b9150826002028217905092915050565b6131e082611fb8565b67ffffffffffffffff8111156131f9576131f86122b5565b5b61320382546125bc565b61320e82828561314a565b600060209050601f831160018114613241576000841561322f578287015190505b61323985826131bb565b8655506132a1565b601f19841661324f8661302b565b60005b8281101561327757848901518255600182019150602085019450602081019050613252565b868310156132945784890151613290601f89168261319d565b8355505b6001600288020188555050505b505050505050565b600081519050919050565b600082825260208201905092915050565b60006132d0826132a9565b6132da81856132b4565b93506132ea818560208601611fd4565b6132f381611ffe565b840191505092915050565b600060808201905061331360008301876120ff565b61332060208301866120ff565b61332d60408301856121e8565b818103606083015261333f81846132c5565b905095945050505050565b60008151905061335981611f29565b92915050565b60006020828403121561337557613374611ef3565b5b60006133838482850161334a565b91505092915050565b60006133978261206a565b91507fffffffffffffffffffffffffffffffffffffffffffffffffffffffffffffffff82036133c9576133c8612a6b565b5b600182019050919050565b7f4e487b7100000000000000000000000000000000000000000000000000000000600052601260045260246000fd5b600061340e8261206a565b91506134198361206a565b925082613429576134286133d4565b5b828204905092915050565b600061343f8261206a565b915061344a8361206a565b92508261345a576134596133d4565b5b828206905092915050565b7f4e487b7100000000000000000000000000000000000000000000000000000000600052603260045260246000fdfea2646970667358221220db659a4cfc486a2981d2d3645785b2b73d95515b0f49baf4f183010f164065b264736f6c63430008110033",
  "linkReferences": {},
  "deployedLinkReferences": {}
}